{
  "contractName": "ArtDecoNFT",
  "abi": [
    {
      "inputs": [
        {
          "internalType": "address",
          "name": "_paymentToken",
          "type": "address"
        }
      ],
      "stateMutability": "nonpayable",
      "type": "constructor"
    },
    {
      "anonymous": false,
      "inputs": [
        {
          "indexed": true,
          "internalType": "address",
          "name": "owner",
          "type": "address"
        },
        {
          "indexed": true,
          "internalType": "address",
          "name": "approved",
          "type": "address"
        },
        {
          "indexed": true,
          "internalType": "uint256",
          "name": "tokenId",
          "type": "uint256"
        }
      ],
      "name": "Approval",
      "type": "event"
    },
    {
      "anonymous": false,
      "inputs": [
        {
          "indexed": true,
          "internalType": "address",
          "name": "owner",
          "type": "address"
        },
        {
          "indexed": true,
          "internalType": "address",
          "name": "operator",
          "type": "address"
        },
        {
          "indexed": false,
          "internalType": "bool",
          "name": "approved",
          "type": "bool"
        }
      ],
      "name": "ApprovalForAll",
      "type": "event"
    },
    {
      "anonymous": false,
      "inputs": [
        {
          "indexed": true,
          "internalType": "address",
          "name": "buyer",
          "type": "address"
        },
        {
          "indexed": false,
          "internalType": "uint256",
          "name": "nftID",
          "type": "uint256"
        }
      ],
      "name": "BidCancel",
      "type": "event"
    },
    {
      "anonymous": false,
      "inputs": [
        {
          "indexed": true,
          "internalType": "address",
          "name": "buyer",
          "type": "address"
        },
        {
          "indexed": false,
          "internalType": "uint256",
          "name": "nftID",
          "type": "uint256"
        },
        {
          "indexed": false,
          "internalType": "uint256",
          "name": "price",
          "type": "uint256"
        }
      ],
      "name": "BidCreate",
      "type": "event"
    },
    {
      "anonymous": false,
      "inputs": [
        {
          "indexed": false,
          "internalType": "uint256",
          "name": "nftID",
          "type": "uint256"
        }
      ],
      "name": "Burned",
      "type": "event"
    },
    {
      "anonymous": false,
      "inputs": [
        {
          "indexed": true,
          "internalType": "address",
          "name": "minter",
          "type": "address"
        },
        {
          "indexed": false,
          "internalType": "uint256",
          "name": "price",
          "type": "uint256"
        },
        {
          "indexed": false,
          "internalType": "uint256",
          "name": "nftID",
          "type": "uint256"
        },
        {
          "indexed": false,
          "internalType": "string",
          "name": "uri",
          "type": "string"
        }
      ],
      "name": "Minted",
      "type": "event"
    },
    {
      "anonymous": false,
      "inputs": [
        {
          "indexed": true,
          "internalType": "address",
          "name": "owner",
          "type": "address"
        },
        {
          "indexed": false,
          "internalType": "uint256",
          "name": "nftID",
          "type": "uint256"
        },
        {
          "indexed": false,
          "internalType": "bool",
          "name": "isListed",
          "type": "bool"
        }
      ],
      "name": "NftListStatus",
      "type": "event"
    },
    {
      "anonymous": false,
      "inputs": [
        {
          "indexed": true,
          "internalType": "address",
          "name": "previousOwner",
          "type": "address"
        },
        {
          "indexed": true,
          "internalType": "address",
          "name": "newOwner",
          "type": "address"
        }
      ],
      "name": "OwnershipTransferred",
      "type": "event"
    },
    {
      "anonymous": false,
      "inputs": [
        {
          "indexed": true,
          "internalType": "address",
          "name": "owner",
          "type": "address"
        },
        {
          "indexed": false,
          "internalType": "uint256",
          "name": "oldPrice",
          "type": "uint256"
        },
        {
          "indexed": false,
          "internalType": "uint256",
          "name": "newPrice",
          "type": "uint256"
        },
        {
          "indexed": false,
          "internalType": "uint256",
          "name": "nftID",
          "type": "uint256"
        }
      ],
      "name": "PriceUpdate",
      "type": "event"
    },
    {
      "anonymous": false,
      "inputs": [
        {
          "indexed": true,
          "internalType": "address",
          "name": "previousOwner",
          "type": "address"
        },
        {
          "indexed": true,
          "internalType": "address",
          "name": "newOwner",
          "type": "address"
        },
        {
          "indexed": false,
          "internalType": "uint256",
          "name": "price",
          "type": "uint256"
        },
        {
          "indexed": false,
          "internalType": "uint256",
          "name": "nftID",
          "type": "uint256"
        },
        {
          "indexed": false,
          "internalType": "string",
          "name": "uri",
          "type": "string"
        }
      ],
      "name": "Purchase",
      "type": "event"
    },
    {
      "anonymous": false,
      "inputs": [
        {
          "indexed": true,
          "internalType": "address",
          "name": "previousOwner",
          "type": "address"
        },
        {
          "indexed": true,
          "internalType": "address",
          "name": "newOwner",
          "type": "address"
        },
        {
          "indexed": false,
          "internalType": "uint256",
          "name": "price",
          "type": "uint256"
        },
        {
          "indexed": false,
          "internalType": "uint256",
          "name": "nftID",
          "type": "uint256"
        },
        {
          "indexed": false,
          "internalType": "string",
          "name": "uri",
          "type": "string"
        }
      ],
      "name": "Sell",
      "type": "event"
    },
    {
      "anonymous": false,
      "inputs": [
        {
          "indexed": true,
          "internalType": "address",
          "name": "from",
          "type": "address"
        },
        {
          "indexed": true,
          "internalType": "address",
          "name": "to",
          "type": "address"
        },
        {
          "indexed": true,
          "internalType": "uint256",
          "name": "tokenId",
          "type": "uint256"
        }
      ],
      "name": "Transfer",
      "type": "event"
    },
    {
      "inputs": [
        {
          "internalType": "address",
          "name": "to",
          "type": "address"
        },
        {
          "internalType": "uint256",
          "name": "tokenId",
          "type": "uint256"
        }
      ],
      "name": "approve",
      "outputs": [],
      "stateMutability": "nonpayable",
      "type": "function"
    },
    {
      "inputs": [
        {
          "internalType": "address",
          "name": "owner",
          "type": "address"
        }
      ],
      "name": "balanceOf",
      "outputs": [
        {
          "internalType": "uint256",
          "name": "",
          "type": "uint256"
        }
      ],
      "stateMutability": "view",
      "type": "function"
    },
    {
      "inputs": [
        {
          "internalType": "uint256",
          "name": "",
          "type": "uint256"
        },
        {
          "internalType": "uint256",
          "name": "",
          "type": "uint256"
        }
      ],
      "name": "bidArrayOfToken",
      "outputs": [
        {
          "internalType": "uint256",
          "name": "tokenId",
          "type": "uint256"
        },
        {
          "internalType": "address",
          "name": "buyer",
          "type": "address"
        },
        {
          "internalType": "uint256",
          "name": "price",
          "type": "uint256"
        }
      ],
      "stateMutability": "view",
      "type": "function"
    },
    {
      "inputs": [
        {
          "internalType": "uint256",
          "name": "",
          "type": "uint256"
        },
        {
          "internalType": "address",
          "name": "",
          "type": "address"
        }
      ],
      "name": "bidStatusOfToken",
      "outputs": [
        {
          "internalType": "bool",
          "name": "",
          "type": "bool"
        }
      ],
      "stateMutability": "view",
      "type": "function"
    },
    {
      "inputs": [],
      "name": "feeAddress",
      "outputs": [
        {
          "internalType": "address",
          "name": "",
          "type": "address"
        }
      ],
      "stateMutability": "view",
      "type": "function"
    },
    {
      "inputs": [],
      "name": "feePercent",
      "outputs": [
        {
          "internalType": "uint256",
          "name": "",
          "type": "uint256"
        }
      ],
      "stateMutability": "view",
      "type": "function"
    },
    {
      "inputs": [
        {
          "internalType": "uint256",
          "name": "tokenId",
          "type": "uint256"
        }
      ],
      "name": "getApproved",
      "outputs": [
        {
          "internalType": "address",
          "name": "",
          "type": "address"
        }
      ],
      "stateMutability": "view",
      "type": "function"
    },
    {
      "inputs": [
        {
          "internalType": "address",
          "name": "owner",
          "type": "address"
        },
        {
          "internalType": "address",
          "name": "operator",
          "type": "address"
        }
      ],
      "name": "isApprovedForAll",
      "outputs": [
        {
          "internalType": "bool",
          "name": "",
          "type": "bool"
        }
      ],
      "stateMutability": "view",
      "type": "function"
    },
    {
      "inputs": [
        {
          "internalType": "uint256",
          "name": "",
          "type": "uint256"
        }
      ],
      "name": "listedMap",
      "outputs": [
        {
          "internalType": "bool",
          "name": "",
          "type": "bool"
        }
      ],
      "stateMutability": "view",
      "type": "function"
    },
    {
      "inputs": [],
      "name": "name",
      "outputs": [
        {
          "internalType": "string",
          "name": "",
          "type": "string"
        }
      ],
      "stateMutability": "view",
      "type": "function"
    },
    {
      "inputs": [],
      "name": "owner",
      "outputs": [
        {
          "internalType": "address",
          "name": "",
          "type": "address"
        }
      ],
      "stateMutability": "view",
      "type": "function"
    },
    {
      "inputs": [
        {
          "internalType": "uint256",
          "name": "tokenId",
          "type": "uint256"
        }
      ],
      "name": "ownerOf",
      "outputs": [
        {
          "internalType": "address",
          "name": "",
          "type": "address"
        }
      ],
      "stateMutability": "view",
      "type": "function"
    },
    {
      "inputs": [],
      "name": "paymentToken",
      "outputs": [
        {
          "internalType": "contract IERC20",
          "name": "",
          "type": "address"
        }
      ],
      "stateMutability": "view",
      "type": "function"
    },
    {
      "inputs": [
        {
          "internalType": "uint256",
          "name": "",
          "type": "uint256"
        }
      ],
      "name": "price",
      "outputs": [
        {
          "internalType": "uint256",
          "name": "",
          "type": "uint256"
        }
      ],
      "stateMutability": "view",
      "type": "function"
    },
    {
      "inputs": [],
      "name": "renounceOwnership",
      "outputs": [],
      "stateMutability": "nonpayable",
      "type": "function"
    },
    {
      "inputs": [
        {
          "internalType": "address",
          "name": "from",
          "type": "address"
        },
        {
          "internalType": "address",
          "name": "to",
          "type": "address"
        },
        {
          "internalType": "uint256",
          "name": "tokenId",
          "type": "uint256"
        }
      ],
      "name": "safeTransferFrom",
      "outputs": [],
      "stateMutability": "nonpayable",
      "type": "function"
    },
    {
      "inputs": [
        {
          "internalType": "address",
          "name": "from",
          "type": "address"
        },
        {
          "internalType": "address",
          "name": "to",
          "type": "address"
        },
        {
          "internalType": "uint256",
          "name": "tokenId",
          "type": "uint256"
        },
        {
          "internalType": "bytes",
          "name": "_data",
          "type": "bytes"
        }
      ],
      "name": "safeTransferFrom",
      "outputs": [],
      "stateMutability": "nonpayable",
      "type": "function"
    },
    {
      "inputs": [
        {
          "internalType": "address",
          "name": "operator",
          "type": "address"
        },
        {
          "internalType": "bool",
          "name": "approved",
          "type": "bool"
        }
      ],
      "name": "setApprovalForAll",
      "outputs": [],
      "stateMutability": "nonpayable",
      "type": "function"
    },
    {
      "inputs": [
        {
          "internalType": "bytes4",
          "name": "interfaceId",
          "type": "bytes4"
        }
      ],
      "name": "supportsInterface",
      "outputs": [
        {
          "internalType": "bool",
          "name": "",
          "type": "bool"
        }
      ],
      "stateMutability": "view",
      "type": "function"
    },
    {
      "inputs": [],
      "name": "symbol",
      "outputs": [
        {
          "internalType": "string",
          "name": "",
          "type": "string"
        }
      ],
      "stateMutability": "view",
      "type": "function"
    },
    {
      "inputs": [
        {
          "internalType": "uint256",
          "name": "tokenId",
          "type": "uint256"
        }
      ],
      "name": "tokenURI",
      "outputs": [
        {
          "internalType": "string",
          "name": "",
          "type": "string"
        }
      ],
      "stateMutability": "view",
      "type": "function"
    },
    {
      "inputs": [
        {
          "internalType": "address",
          "name": "from",
          "type": "address"
        },
        {
          "internalType": "address",
          "name": "to",
          "type": "address"
        },
        {
          "internalType": "uint256",
          "name": "tokenId",
          "type": "uint256"
        }
      ],
      "name": "transferFrom",
      "outputs": [],
      "stateMutability": "nonpayable",
      "type": "function"
    },
    {
      "inputs": [
        {
          "internalType": "address",
          "name": "newOwner",
          "type": "address"
        }
      ],
      "name": "transferOwnership",
      "outputs": [],
      "stateMutability": "nonpayable",
      "type": "function"
    },
    {
      "inputs": [
        {
          "internalType": "address",
          "name": "_feeAddress",
          "type": "address"
        },
        {
          "internalType": "uint256",
          "name": "_feePercent",
          "type": "uint256"
        }
      ],
      "name": "setFee",
      "outputs": [],
      "stateMutability": "nonpayable",
      "type": "function"
    },
    {
      "inputs": [
        {
          "internalType": "string",
          "name": "_tokenURI",
          "type": "string"
        },
        {
          "internalType": "uint256",
          "name": "_price",
          "type": "uint256"
        }
      ],
      "name": "mint",
      "outputs": [
        {
          "internalType": "uint256",
          "name": "",
          "type": "uint256"
        }
      ],
      "stateMutability": "nonpayable",
      "type": "function"
    },
    {
      "inputs": [
        {
          "internalType": "uint256",
          "name": "_id",
          "type": "uint256"
        }
      ],
      "name": "burn",
      "outputs": [],
      "stateMutability": "nonpayable",
      "type": "function"
    },
    {
      "inputs": [
        {
          "internalType": "uint256",
          "name": "_id",
          "type": "uint256"
        }
      ],
      "name": "buy",
      "outputs": [],
      "stateMutability": "payable",
      "type": "function"
    },
    {
      "inputs": [
        {
          "internalType": "uint256",
          "name": "_id",
          "type": "uint256"
        },
        {
          "internalType": "uint256",
          "name": "_price",
          "type": "uint256"
        }
      ],
      "name": "bid",
      "outputs": [],
      "stateMutability": "nonpayable",
      "type": "function"
    },
    {
      "inputs": [
        {
          "internalType": "uint256",
          "name": "_id",
          "type": "uint256"
        }
      ],
      "name": "cancelBid",
      "outputs": [],
      "stateMutability": "nonpayable",
      "type": "function"
    },
    {
      "inputs": [
        {
          "internalType": "uint256",
          "name": "_id",
          "type": "uint256"
        },
        {
          "internalType": "address",
          "name": "_buyer",
          "type": "address"
        }
      ],
      "name": "sell",
      "outputs": [],
      "stateMutability": "nonpayable",
      "type": "function"
    },
    {
      "inputs": [
        {
          "internalType": "uint256",
          "name": "_tokenId",
          "type": "uint256"
        },
        {
          "internalType": "uint256",
          "name": "_price",
          "type": "uint256"
        }
      ],
      "name": "updatePrice",
      "outputs": [],
      "stateMutability": "nonpayable",
      "type": "function"
    },
    {
      "inputs": [
        {
          "internalType": "uint256",
          "name": "_tokenId",
          "type": "uint256"
        },
        {
          "internalType": "bool",
          "name": "shouldBeListed",
          "type": "bool"
        }
      ],
      "name": "updateListingStatus",
      "outputs": [],
      "stateMutability": "nonpayable",
      "type": "function"
    }
  ],
  "bytecode": "0x608060405260036009556000600c553480156200001b57600080fd5b50604051620066093803806200660983398181016040528101906200004191906200032e565b6040518060400160405280600c81526020017f4172744465636f204e46547300000000000000000000000000000000000000008152506040518060400160405280600481526020017f41525444000000000000000000000000000000000000000000000000000000008152508160009080519060200190620000c592919062000267565b508060019080519060200190620000de92919062000267565b50505062000101620000f56200019960201b60201c565b620001a160201b60201c565b620001116200019960201b60201c565b600860006101000a81548173ffffffffffffffffffffffffffffffffffffffff021916908373ffffffffffffffffffffffffffffffffffffffff16021790555080600d60006101000a81548173ffffffffffffffffffffffffffffffffffffffff021916908373ffffffffffffffffffffffffffffffffffffffff160217905550506200040d565b600033905090565b6000600760009054906101000a900473ffffffffffffffffffffffffffffffffffffffff16905081600760006101000a81548173ffffffffffffffffffffffffffffffffffffffff021916908373ffffffffffffffffffffffffffffffffffffffff1602179055508173ffffffffffffffffffffffffffffffffffffffff168173ffffffffffffffffffffffffffffffffffffffff167f8be0079c531659141344cd1fd0a4f28419497f9722a3daafe3b4186f6b6457e060405160405180910390a35050565b82805462000275906200038e565b90600052602060002090601f016020900481019282620002995760008555620002e5565b82601f10620002b457805160ff1916838001178555620002e5565b82800160010185558215620002e5579182015b82811115620002e4578251825591602001919060010190620002c7565b5b509050620002f49190620002f8565b5090565b5b8082111562000313576000816000905550600101620002f9565b5090565b6000815190506200032881620003f3565b92915050565b6000602082840312156200034157600080fd5b6000620003518482850162000317565b91505092915050565b600062000367826200036e565b9050919050565b600073ffffffffffffffffffffffffffffffffffffffff82169050919050565b60006002820490506001821680620003a757607f821691505b60208210811415620003be57620003bd620003c4565b5b50919050565b7f4e487b7100000000000000000000000000000000000000000000000000000000600052602260045260246000fd5b620003fe816200035a565b81146200040a57600080fd5b50565b6161ec806200041d6000396000f3fe6080604052600436106101e35760003560e01c80637fd6f15c11610102578063a85bcfeb11610095578063d96a094a11610064578063d96a094a14610728578063e55156b514610744578063e985e9c51461076d578063f2fde38b146107aa576101e3565b8063a85bcfeb14610648578063b88d4fde14610685578063bc8ba28f146106ae578063c87b56dd146106eb576101e3565b806395d89b41116100d157806395d89b41146105a25780639703ef35146105cd57806398214bcb146105f6578063a22cb4651461061f576101e3565b80637fd6f15c146104e457806382367b2d1461050f5780638ccd1127146105385780638da5cb5b14610577576101e3565b8063412753581161017a578063598647f811610149578063598647f81461042a5780636352211e1461045357806370a0823114610490578063715018a6146104cd576101e3565b806341275358146103845780634189a68e146103af57806342842e0e146103d857806342966c6814610401576101e3565b8063095ea7b3116101b6578063095ea7b3146102ca57806323b872dd146102f357806326a49e371461031c5780633013ce2914610359576101e3565b806301ffc9a7146101e8578063056b01ce1461022557806306fdde0314610262578063081812fc1461028d575b600080fd5b3480156101f457600080fd5b5061020f600480360381019061020a9190614732565b6107d3565b60405161021c9190614f4e565b60405180910390f35b34801561023157600080fd5b5061024c60048036038101906102479190614784565b6108b5565b60405161025991906153e6565b60405180910390f35b34801561026e57600080fd5b5061027761099c565b6040516102849190614f84565b60405180910390f35b34801561029957600080fd5b506102b460048036038101906102af91906147d8565b610a2e565b6040516102c19190614e87565b60405180910390f35b3480156102d657600080fd5b506102f160048036038101906102ec91906146cd565b610ab3565b005b3480156102ff57600080fd5b5061031a600480360381019061031591906145c7565b610bcb565b005b34801561032857600080fd5b50610343600480360381019061033e91906147d8565b610c2b565b60405161035091906153e6565b60405180910390f35b34801561036557600080fd5b5061036e610c43565b60405161037b9190614f69565b60405180910390f35b34801561039057600080fd5b50610399610c69565b6040516103a69190614e87565b60405180910390f35b3480156103bb57600080fd5b506103d660048036038101906103d1919061482a565b610c8f565b005b3480156103e457600080fd5b506103ff60048036038101906103fa91906145c7565b611414565b005b34801561040d57600080fd5b50610428600480360381019061042391906147d8565b611434565b005b34801561043657600080fd5b50610451600480360381019061044c91906148a2565b6116b1565b005b34801561045f57600080fd5b5061047a600480360381019061047591906147d8565b611a6b565b6040516104879190614e87565b60405180910390f35b34801561049c57600080fd5b506104b760048036038101906104b29190614562565b611b1d565b6040516104c491906153e6565b60405180910390f35b3480156104d957600080fd5b506104e2611bd5565b005b3480156104f057600080fd5b506104f9611c5d565b60405161050691906153e6565b60405180910390f35b34801561051b57600080fd5b50610536600480360381019061053191906148a2565b611c63565b005b34801561054457600080fd5b5061055f600480360381019061055a91906148a2565b611db8565b60405161056e93929190615401565b60405180910390f35b34801561058357600080fd5b5061058c611e1f565b6040516105999190614e87565b60405180910390f35b3480156105ae57600080fd5b506105b7611e49565b6040516105c49190614f84565b60405180910390f35b3480156105d957600080fd5b506105f460048036038101906105ef91906147d8565b611edb565b005b34801561060257600080fd5b5061061d60048036038101906106189190614866565b612452565b005b34801561062b57600080fd5b5061064660048036038101906106419190614691565b61259f565b005b34801561065457600080fd5b5061066f600480360381019061066a919061482a565b6125b5565b60405161067c9190614f4e565b60405180910390f35b34801561069157600080fd5b506106ac60048036038101906106a79190614616565b6125e4565b005b3480156106ba57600080fd5b506106d560048036038101906106d091906147d8565b612646565b6040516106e29190614f4e565b60405180910390f35b3480156106f757600080fd5b50610712600480360381019061070d91906147d8565b612666565b60405161071f9190614f84565b60405180910390f35b610742600480360381019061073d91906147d8565b6127b8565b005b34801561075057600080fd5b5061076b600480360381019061076691906146cd565b612cf7565b005b34801561077957600080fd5b50610794600480360381019061078f919061458b565b612dbf565b6040516107a19190614f4e565b60405180910390f35b3480156107b657600080fd5b506107d160048036038101906107cc9190614562565b612e53565b005b60007f80ac58cd000000000000000000000000000000000000000000000000000000007bffffffffffffffffffffffffffffffffffffffffffffffffffffffff1916827bffffffffffffffffffffffffffffffffffffffffffffffffffffffff1916148061089e57507f5b5e139f000000000000000000000000000000000000000000000000000000007bffffffffffffffffffffffffffffffffffffffffffffffffffffffff1916827bffffffffffffffffffffffffffffffffffffffffffffffffffffffff1916145b806108ae57506108ad82612f4b565b5b9050919050565b60006108cd6001600c54612fb590919063ffffffff16565b600c819055506000600c54905082600a6000838152602001908152602001600020819055506001600b600083815260200190815260200160002060006101000a81548160ff02191690831515021790555061092f610929613013565b8261301b565b6109398185613039565b610941613013565b73ffffffffffffffffffffffffffffffffffffffff167ff2cb5e52049d127ad1c335f1cc25f2fdbc911bec1beb2611f4c1e8b1c274d4b484838760405161098a9392919061548a565b60405180910390a28091505092915050565b6060600080546109ab906157b8565b80601f01602080910402602001604051908101604052809291908181526020018280546109d7906157b8565b8015610a245780601f106109f957610100808354040283529160200191610a24565b820191906000526020600020905b815481529060010190602001808311610a0757829003601f168201915b5050505050905090565b6000610a39826130ad565b610a78576040517f08c379a0000000000000000000000000000000000000000000000000000000008152600401610a6f90615286565b60405180910390fd5b6004600083815260200190815260200160002060009054906101000a900473ffffffffffffffffffffffffffffffffffffffff169050919050565b6000610abe82611a6b565b90508073ffffffffffffffffffffffffffffffffffffffff168373ffffffffffffffffffffffffffffffffffffffff161415610b2f576040517f08c379a0000000000000000000000000000000000000000000000000000000008152600401610b26906152e6565b60405180910390fd5b8073ffffffffffffffffffffffffffffffffffffffff16610b4e613013565b73ffffffffffffffffffffffffffffffffffffffff161480610b7d5750610b7c81610b77613013565b612dbf565b5b610bbc576040517f08c379a0000000000000000000000000000000000000000000000000000000008152600401610bb390615166565b60405180910390fd5b610bc68383613119565b505050565b610bdc610bd6613013565b826131d2565b610c1b576040517f08c379a0000000000000000000000000000000000000000000000000000000008152600401610c1290615306565b60405180910390fd5b610c268383836132b0565b505050565b600a6020528060005260406000206000915090505481565b600d60009054906101000a900473ffffffffffffffffffffffffffffffffffffffff1681565b600860009054906101000a900473ffffffffffffffffffffffffffffffffffffffff1681565b8181610c9a826130ad565b610cd9576040517f08c379a0000000000000000000000000000000000000000000000000000000008152600401610cd090615326565b60405180910390fd5b600b600083815260200190815260200160002060009054906101000a900460ff16610d39576040517f08c379a0000000000000000000000000000000000000000000000000000000008152600401610d3090615346565b60405180910390fd5b610d4282611a6b565b73ffffffffffffffffffffffffffffffffffffffff16610d60613013565b73ffffffffffffffffffffffffffffffffffffffff1614610db6576040517f08c379a0000000000000000000000000000000000000000000000000000000008152600401610dad906153a6565b60405180910390fd5b60011515600f600084815260200190815260200160002060008373ffffffffffffffffffffffffffffffffffffffff1673ffffffffffffffffffffffffffffffffffffffff16815260200190815260200160002060009054906101000a900460ff16151514610e5a576040517f08c379a0000000000000000000000000000000000000000000000000000000008152600401610e5190615366565b60405180910390fd5b6000610e668383613517565b9050600d60009054906101000a900473ffffffffffffffffffffffffffffffffffffffff1673ffffffffffffffffffffffffffffffffffffffff1663dd62ed3e83306040518363ffffffff1660e01b8152600401610ec5929190614ea2565b60206040518083038186803b158015610edd57600080fd5b505afa158015610ef1573d6000803e3d6000fd5b505050506040513d601f19601f82011682018060405250810190610f159190614801565b811115610f57576040517f08c379a0000000000000000000000000000000000000000000000000000000008152600401610f4e90615386565b60405180910390fd5b600d60009054906101000a900473ffffffffffffffffffffffffffffffffffffffff1673ffffffffffffffffffffffffffffffffffffffff166370a08231836040518263ffffffff1660e01b8152600401610fb29190614e87565b60206040518083038186803b158015610fca57600080fd5b505afa158015610fde573d6000803e3d6000fd5b505050506040513d601f19601f820116820180604052508101906110029190614801565b811115611044576040517f08c379a000000000000000000000000000000000000000000000000000000000815260040161103b90615146565b60405180910390fd5b600061104f86611a6b565b905061105c8186886132b0565b60006110688787613517565b9050600061109460095461108660648561367190919063ffffffff16565b6136bb90919063ffffffff16565b905060006110ab828461373690919063ffffffff16565b9050600d60009054906101000a900473ffffffffffffffffffffffffffffffffffffffff1673ffffffffffffffffffffffffffffffffffffffff166323b872dd89600860009054906101000a900473ffffffffffffffffffffffffffffffffffffffff16856040518463ffffffff1660e01b815260040161112e93929190614ecb565b602060405180830381600087803b15801561114857600080fd5b505af115801561115c573d6000803e3d6000fd5b505050506040513d601f19601f820116820180604052508101906111809190614709565b50600d60009054906101000a900473ffffffffffffffffffffffffffffffffffffffff1673ffffffffffffffffffffffffffffffffffffffff166323b872dd8986846040518463ffffffff1660e01b81526004016111e093929190614ecb565b602060405180830381600087803b1580156111fa57600080fd5b505af115801561120e573d6000803e3d6000fd5b505050506040513d601f19601f820116820180604052508101906112329190614709565b506000600b60008b815260200190815260200160002060006101000a81548160ff02191690831515021790555060005b600e60008b815260200190815260200160002080549050811015611378576000600f60008c81526020019081526020016000206000600e60008e815260200190815260200160002084815481106112e2577f4e487b7100000000000000000000000000000000000000000000000000000000600052603260045260246000fd5b906000526020600020906003020160010160009054906101000a900473ffffffffffffffffffffffffffffffffffffffff1673ffffffffffffffffffffffffffffffffffffffff1673ffffffffffffffffffffffffffffffffffffffff16815260200190815260200160002060006101000a81548160ff02191690831515021790555080806113709061581b565b915050611262565b50600e60008a8152602001908152602001600020600061139891906142aa565b8773ffffffffffffffffffffffffffffffffffffffff168473ffffffffffffffffffffffffffffffffffffffff167f5ce73c6e10314aeabfcd5b6f0cea20e5ecadbf74aee4cc8432db80c3a0eea696858c6113f28e612666565b6040516114019392919061548a565b60405180910390a3505050505050505050565b61142f838383604051806020016040528060008152506125e4565b505050565b8061143e816130ad565b61147d576040517f08c379a000000000000000000000000000000000000000000000000000000000815260040161147490615326565b60405180910390fd5b61148681611a6b565b73ffffffffffffffffffffffffffffffffffffffff166114a4613013565b73ffffffffffffffffffffffffffffffffffffffff16146114fa576040517f08c379a00000000000000000000000000000000000000000000000000000000081526004016114f190615206565b60405180910390fd5b61150382613780565b600a600083815260200190815260200160002060009055600b600083815260200190815260200160002060006101000a81549060ff021916905560005b600e600084815260200190815260200160002080549050811015611656576000600f60008581526020019081526020016000206000600e600087815260200190815260200160002084815481106115c0577f4e487b7100000000000000000000000000000000000000000000000000000000600052603260045260246000fd5b906000526020600020906003020160010160009054906101000a900473ffffffffffffffffffffffffffffffffffffffff1673ffffffffffffffffffffffffffffffffffffffff1673ffffffffffffffffffffffffffffffffffffffff16815260200190815260200160002060006101000a81548160ff021916908315150217905550808061164e9061581b565b915050611540565b50600e6000838152602001908152602001600020600061167691906142aa565b7fd83c63197e8e676d80ab0122beba9a9d20f3828839e9a1d6fe81d242e9cd7e6e826040516116a591906153e6565b60405180910390a15050565b81816116bc826130ad565b6116fb576040517f08c379a00000000000000000000000000000000000000000000000000000000081526004016116f290615326565b60405180910390fd5b600b600083815260200190815260200160002060009054906101000a900460ff1661175b576040517f08c379a000000000000000000000000000000000000000000000000000000000815260040161175290615346565b60405180910390fd5b6000811161179e576040517f08c379a0000000000000000000000000000000000000000000000000000000008152600401611795906150c6565b60405180910390fd5b6117a782611a6b565b73ffffffffffffffffffffffffffffffffffffffff166117c5613013565b73ffffffffffffffffffffffffffffffffffffffff16141561181c576040517f08c379a0000000000000000000000000000000000000000000000000000000008152600401611813906151e6565b60405180910390fd5b60001515600f6000848152602001908152602001600020600061183d613013565b73ffffffffffffffffffffffffffffffffffffffff1673ffffffffffffffffffffffffffffffffffffffff16815260200190815260200160002060009054906101000a900460ff161515146118c7576040517f08c379a00000000000000000000000000000000000000000000000000000000081526004016118be90615086565b60405180910390fd5b600060405180606001604052808681526020016118e2613013565b73ffffffffffffffffffffffffffffffffffffffff168152602001858152509050600e60008681526020019081526020016000208190806001815401808255809150506001900390600052602060002090600302016000909190919091506000820151816000015560208201518160010160006101000a81548173ffffffffffffffffffffffffffffffffffffffff021916908373ffffffffffffffffffffffffffffffffffffffff1602179055506040820151816002015550506001600f600087815260200190815260200160002060006119bc613013565b73ffffffffffffffffffffffffffffffffffffffff1673ffffffffffffffffffffffffffffffffffffffff16815260200190815260200160002060006101000a81548160ff021916908315150217905550611a15613013565b73ffffffffffffffffffffffffffffffffffffffff167f765a3722587ca47822286ce8fd56b9889b7989ac4d398e03896836ec50905c0f8686604051611a5c929190615461565b60405180910390a25050505050565b6000806002600084815260200190815260200160002060009054906101000a900473ffffffffffffffffffffffffffffffffffffffff169050600073ffffffffffffffffffffffffffffffffffffffff168173ffffffffffffffffffffffffffffffffffffffff161415611b14576040517f08c379a0000000000000000000000000000000000000000000000000000000008152600401611b0b906151a6565b60405180910390fd5b80915050919050565b60008073ffffffffffffffffffffffffffffffffffffffff168273ffffffffffffffffffffffffffffffffffffffff161415611b8e576040517f08c379a0000000000000000000000000000000000000000000000000000000008152600401611b8590615186565b60405180910390fd5b600360008373ffffffffffffffffffffffffffffffffffffffff1673ffffffffffffffffffffffffffffffffffffffff168152602001908152602001600020549050919050565b611bdd613013565b73ffffffffffffffffffffffffffffffffffffffff16611bfb611e1f565b73ffffffffffffffffffffffffffffffffffffffff1614611c51576040517f08c379a0000000000000000000000000000000000000000000000000000000008152600401611c48906152a6565b60405180910390fd5b611c5b60006137d3565b565b60095481565b81611c6d816130ad565b611cac576040517f08c379a0000000000000000000000000000000000000000000000000000000008152600401611ca390615326565b60405180910390fd5b611cb581611a6b565b73ffffffffffffffffffffffffffffffffffffffff16611cd3613013565b73ffffffffffffffffffffffffffffffffffffffff1614611d29576040517f08c379a0000000000000000000000000000000000000000000000000000000008152600401611d2090615206565b60405180910390fd5b6000600a600085815260200190815260200160002054905082600a600086815260200190815260200160002081905550611d61613013565b73ffffffffffffffffffffffffffffffffffffffff167f8647dab5101cbe18afb171756e9753802f9d66725bf2346b079b8b1a275e0116828587604051611daa939291906154c8565b60405180910390a250505050565b600e6020528160005260406000208181548110611dd457600080fd5b9060005260206000209060030201600091509150508060000154908060010160009054906101000a900473ffffffffffffffffffffffffffffffffffffffff16908060020154905083565b6000600760009054906101000a900473ffffffffffffffffffffffffffffffffffffffff16905090565b606060018054611e58906157b8565b80601f0160208091040260200160405190810160405280929190818152602001828054611e84906157b8565b8015611ed15780601f10611ea657610100808354040283529160200191611ed1565b820191906000526020600020905b815481529060010190602001808311611eb457829003601f168201915b5050505050905090565b80611ee5816130ad565b611f24576040517f08c379a0000000000000000000000000000000000000000000000000000000008152600401611f1b90615326565b60405180910390fd5b600b600082815260200190815260200160002060009054906101000a900460ff16611f84576040517f08c379a0000000000000000000000000000000000000000000000000000000008152600401611f7b90615346565b60405180910390fd5b611f8d81611a6b565b73ffffffffffffffffffffffffffffffffffffffff16611fab613013565b73ffffffffffffffffffffffffffffffffffffffff161415612002576040517f08c379a0000000000000000000000000000000000000000000000000000000008152600401611ff990614fc6565b60405180910390fd5b60011515600f60008381526020019081526020016000206000612023613013565b73ffffffffffffffffffffffffffffffffffffffff1673ffffffffffffffffffffffffffffffffffffffff16815260200190815260200160002060009054906101000a900460ff161515146120ad576040517f08c379a00000000000000000000000000000000000000000000000000000000081526004016120a490615026565b60405180910390fd5b60005b600e600084815260200190815260200160002080549050811015612388576120d6613013565b73ffffffffffffffffffffffffffffffffffffffff16600e60008581526020019081526020016000208281548110612137577f4e487b7100000000000000000000000000000000000000000000000000000000600052603260045260246000fd5b906000526020600020906003020160010160009054906101000a900473ffffffffffffffffffffffffffffffffffffffff1673ffffffffffffffffffffffffffffffffffffffff16141561237557600e60008481526020019081526020016000206001600e6000868152602001908152602001600020805490506121bb91906156aa565b815481106121f2577f4e487b7100000000000000000000000000000000000000000000000000000000600052603260045260246000fd5b9060005260206000209060030201600e6000858152602001908152602001600020828154811061224b577f4e487b7100000000000000000000000000000000000000000000000000000000600052603260045260246000fd5b9060005260206000209060030201600082015481600001556001820160009054906101000a900473ffffffffffffffffffffffffffffffffffffffff168160010160006101000a81548173ffffffffffffffffffffffffffffffffffffffff021916908373ffffffffffffffffffffffffffffffffffffffff16021790555060028201548160020155905050600e6000848152602001908152602001600020805480612320577f4e487b7100000000000000000000000000000000000000000000000000000000600052603160045260246000fd5b60019003818190600052602060002090600302016000808201600090556001820160006101000a81549073ffffffffffffffffffffffffffffffffffffffff0219169055600282016000905550509055612388565b80806123809061581b565b9150506120b0565b506000600f600084815260200190815260200160002060006123a8613013565b73ffffffffffffffffffffffffffffffffffffffff1673ffffffffffffffffffffffffffffffffffffffff16815260200190815260200160002060006101000a81548160ff021916908315150217905550612401613013565b73ffffffffffffffffffffffffffffffffffffffff167f08ec5acdd507dd809465233fa3fea399894f6ee7213da343c15ba3ba7f3119378360405161244691906153e6565b60405180910390a25050565b8161245c816130ad565b61249b576040517f08c379a000000000000000000000000000000000000000000000000000000000815260040161249290615326565b60405180910390fd5b6124a481611a6b565b73ffffffffffffffffffffffffffffffffffffffff166124c2613013565b73ffffffffffffffffffffffffffffffffffffffff1614612518576040517f08c379a000000000000000000000000000000000000000000000000000000000815260040161250f90615206565b60405180910390fd5b81600b600085815260200190815260200160002060006101000a81548160ff02191690831515021790555061254b613013565b73ffffffffffffffffffffffffffffffffffffffff167f3fd63d9ca8dc693a1b9911e664951294721009a4f6239c862d6719a160a1edfc8484604051612592929190615438565b60405180910390a2505050565b6125b16125aa613013565b8383613899565b5050565b600f6020528160005260406000206020528060005260406000206000915091509054906101000a900460ff1681565b6125f56125ef613013565b836131d2565b612634576040517f08c379a000000000000000000000000000000000000000000000000000000000815260040161262b90615306565b60405180910390fd5b61264084848484613a06565b50505050565b600b6020528060005260406000206000915054906101000a900460ff1681565b6060612671826130ad565b6126b0576040517f08c379a00000000000000000000000000000000000000000000000000000000081526004016126a790615246565b60405180910390fd5b60006006600084815260200190815260200160002080546126d0906157b8565b80601f01602080910402602001604051908101604052809291908181526020018280546126fc906157b8565b80156127495780601f1061271e57610100808354040283529160200191612749565b820191906000526020600020905b81548152906001019060200180831161272c57829003601f168201915b50505050509050600061275a613a62565b90506000815114156127705781925050506127b3565b6000825111156127a557808260405160200161278d929190614e63565b604051602081830303815290604052925050506127b3565b6127ae84613a79565b925050505b919050565b806127c2816130ad565b612801576040517f08c379a00000000000000000000000000000000000000000000000000000000081526004016127f890615326565b60405180910390fd5b600b600082815260200190815260200160002060009054906101000a900460ff16612861576040517f08c379a000000000000000000000000000000000000000000000000000000000815260040161285890615346565b60405180910390fd5b600a6000828152602001908152602001600020543410156128b7576040517f08c379a00000000000000000000000000000000000000000000000000000000081526004016128ae906153c6565b60405180910390fd5b6128c081611a6b565b73ffffffffffffffffffffffffffffffffffffffff166128de613013565b73ffffffffffffffffffffffffffffffffffffffff161415612935576040517f08c379a000000000000000000000000000000000000000000000000000000000815260040161292c90614fe6565b60405180910390fd5b600061294083611a6b565b9050600061294c613013565b9050600081905060008390506129638183886132b0565b60006129a06009546129926064600a60008c81526020019081526020016000205461367190919063ffffffff16565b6136bb90919063ffffffff16565b905060006129ca82600a60008b81526020019081526020016000205461373690919063ffffffff16565b90508273ffffffffffffffffffffffffffffffffffffffff166108fc829081150290604051600060405180830381858888f19350505050158015612a12573d6000803e3d6000fd5b50600860009054906101000a900473ffffffffffffffffffffffffffffffffffffffff1673ffffffffffffffffffffffffffffffffffffffff166108fc839081150290604051600060405180830381858888f19350505050158015612a7b573d6000803e3d6000fd5b50600a600089815260200190815260200160002054341115612b04578373ffffffffffffffffffffffffffffffffffffffff166108fc612ad7600a60008c8152602001908152602001600020543461373690919063ffffffff16565b9081150290604051600060405180830381858888f19350505050158015612b02573d6000803e3d6000fd5b505b6000600b60008a815260200190815260200160002060006101000a81548160ff02191690831515021790555060005b600e60008a815260200190815260200160002080549050811015612c49576000600f60008b81526020019081526020016000206000600e60008d81526020019081526020016000208481548110612bb3577f4e487b7100000000000000000000000000000000000000000000000000000000600052603260045260246000fd5b906000526020600020906003020160010160009054906101000a900473ffffffffffffffffffffffffffffffffffffffff1673ffffffffffffffffffffffffffffffffffffffff1673ffffffffffffffffffffffffffffffffffffffff16815260200190815260200160002060006101000a81548160ff0219169083151502179055508080612c419061581b565b915050612b33565b50600e60008981526020019081526020016000206000612c6991906142aa565b8473ffffffffffffffffffffffffffffffffffffffff168673ffffffffffffffffffffffffffffffffffffffff167fef258f47a33a1cba99d81ea828f234ff5d6cb31034c0f79ecb5198f8c6d118f6600a60008c8152602001908152602001600020548b612cd68d612666565b604051612ce59392919061548a565b60405180910390a35050505050505050565b612cff613013565b73ffffffffffffffffffffffffffffffffffffffff16612d1d611e1f565b73ffffffffffffffffffffffffffffffffffffffff1614612d73576040517f08c379a0000000000000000000000000000000000000000000000000000000008152600401612d6a906152a6565b60405180910390fd5b81600860006101000a81548173ffffffffffffffffffffffffffffffffffffffff021916908373ffffffffffffffffffffffffffffffffffffffff160217905550806009819055505050565b6000600560008473ffffffffffffffffffffffffffffffffffffffff1673ffffffffffffffffffffffffffffffffffffffff16815260200190815260200160002060008373ffffffffffffffffffffffffffffffffffffffff1673ffffffffffffffffffffffffffffffffffffffff16815260200190815260200160002060009054906101000a900460ff16905092915050565b612e5b613013565b73ffffffffffffffffffffffffffffffffffffffff16612e79611e1f565b73ffffffffffffffffffffffffffffffffffffffff1614612ecf576040517f08c379a0000000000000000000000000000000000000000000000000000000008152600401612ec6906152a6565b60405180910390fd5b600073ffffffffffffffffffffffffffffffffffffffff168173ffffffffffffffffffffffffffffffffffffffff161415612f3f576040517f08c379a0000000000000000000000000000000000000000000000000000000008152600401612f3690615006565b60405180910390fd5b612f48816137d3565b50565b60007f01ffc9a7000000000000000000000000000000000000000000000000000000007bffffffffffffffffffffffffffffffffffffffffffffffffffffffff1916827bffffffffffffffffffffffffffffffffffffffffffffffffffffffff1916149050919050565b6000808284612fc491906155c9565b905083811015613009576040517f08c379a0000000000000000000000000000000000000000000000000000000008152600401613000906150a6565b60405180910390fd5b8091505092915050565b600033905090565b613035828260405180602001604052806000815250613b20565b5050565b613042826130ad565b613081576040517f08c379a0000000000000000000000000000000000000000000000000000000008152600401613078906151c6565b60405180910390fd5b806006600084815260200190815260200160002090805190602001906130a89291906142ce565b505050565b60008073ffffffffffffffffffffffffffffffffffffffff166002600084815260200190815260200160002060009054906101000a900473ffffffffffffffffffffffffffffffffffffffff1673ffffffffffffffffffffffffffffffffffffffff1614159050919050565b816004600083815260200190815260200160002060006101000a81548173ffffffffffffffffffffffffffffffffffffffff021916908373ffffffffffffffffffffffffffffffffffffffff160217905550808273ffffffffffffffffffffffffffffffffffffffff1661318c83611a6b565b73ffffffffffffffffffffffffffffffffffffffff167f8c5be1e5ebec7d5bd14f71427d1e84f3dd0314c0f7b2291e5b200ac8c7c3b92560405160405180910390a45050565b60006131dd826130ad565b61321c576040517f08c379a000000000000000000000000000000000000000000000000000000000815260040161321390615126565b60405180910390fd5b600061322783611a6b565b90508073ffffffffffffffffffffffffffffffffffffffff168473ffffffffffffffffffffffffffffffffffffffff16148061329657508373ffffffffffffffffffffffffffffffffffffffff1661327e84610a2e565b73ffffffffffffffffffffffffffffffffffffffff16145b806132a757506132a68185612dbf565b5b91505092915050565b8273ffffffffffffffffffffffffffffffffffffffff166132d082611a6b565b73ffffffffffffffffffffffffffffffffffffffff1614613326576040517f08c379a000000000000000000000000000000000000000000000000000000000815260040161331d90615046565b60405180910390fd5b600073ffffffffffffffffffffffffffffffffffffffff168273ffffffffffffffffffffffffffffffffffffffff161415613396576040517f08c379a000000000000000000000000000000000000000000000000000000000815260040161338d906150e6565b60405180910390fd5b6133a1838383613b7b565b6133ac600082613119565b6001600360008573ffffffffffffffffffffffffffffffffffffffff1673ffffffffffffffffffffffffffffffffffffffff16815260200190815260200160002060008282546133fc91906156aa565b925050819055506001600360008473ffffffffffffffffffffffffffffffffffffffff1673ffffffffffffffffffffffffffffffffffffffff168152602001908152602001600020600082825461345391906155c9565b92505081905550816002600083815260200190815260200160002060006101000a81548173ffffffffffffffffffffffffffffffffffffffff021916908373ffffffffffffffffffffffffffffffffffffffff160217905550808273ffffffffffffffffffffffffffffffffffffffff168473ffffffffffffffffffffffffffffffffffffffff167fddf252ad1be2c89b69c2b068fc378daa952ba7f163c4a11628f55a4df523b3ef60405160405180910390a4613512838383613b80565b505050565b600080600090505b600e600085815260200190815260200160002080549050811015613665578273ffffffffffffffffffffffffffffffffffffffff16600e6000868152602001908152602001600020828154811061359f577f4e487b7100000000000000000000000000000000000000000000000000000000600052603260045260246000fd5b906000526020600020906003020160010160009054906101000a900473ffffffffffffffffffffffffffffffffffffffff1673ffffffffffffffffffffffffffffffffffffffff16141561365257600e60008581526020019081526020016000208181548110613638577f4e487b7100000000000000000000000000000000000000000000000000000000600052603260045260246000fd5b90600052602060002090600302016002015491505061366b565b808061365d9061581b565b91505061351f565b50600090505b92915050565b60006136b383836040518060400160405280601a81526020017f536166654d6174683a206469766973696f6e206279207a65726f000000000000815250613b85565b905092915050565b6000808314156136ce5760009050613730565b600082846136dc9190615650565b90508284826136eb919061561f565b1461372b576040517f08c379a000000000000000000000000000000000000000000000000000000000815260040161372290615266565b60405180910390fd5b809150505b92915050565b600061377883836040518060400160405280601e81526020017f536166654d6174683a207375627472616374696f6e206f766572666c6f770000815250613be8565b905092915050565b61378981613c4c565b60006006600083815260200190815260200160002080546137a9906157b8565b9050146137d0576006600082815260200190815260200160002060006137cf9190614354565b5b50565b6000600760009054906101000a900473ffffffffffffffffffffffffffffffffffffffff16905081600760006101000a81548173ffffffffffffffffffffffffffffffffffffffff021916908373ffffffffffffffffffffffffffffffffffffffff1602179055508173ffffffffffffffffffffffffffffffffffffffff168173ffffffffffffffffffffffffffffffffffffffff167f8be0079c531659141344cd1fd0a4f28419497f9722a3daafe3b4186f6b6457e060405160405180910390a35050565b8173ffffffffffffffffffffffffffffffffffffffff168373ffffffffffffffffffffffffffffffffffffffff161415613908576040517f08c379a00000000000000000000000000000000000000000000000000000000081526004016138ff90615106565b60405180910390fd5b80600560008573ffffffffffffffffffffffffffffffffffffffff1673ffffffffffffffffffffffffffffffffffffffff16815260200190815260200160002060008473ffffffffffffffffffffffffffffffffffffffff1673ffffffffffffffffffffffffffffffffffffffff16815260200190815260200160002060006101000a81548160ff0219169083151502179055508173ffffffffffffffffffffffffffffffffffffffff168373ffffffffffffffffffffffffffffffffffffffff167f17307eab39ab6107e8899845ad3d59bd9653f200f220920489ca2b5937696c31836040516139f99190614f4e565b60405180910390a3505050565b613a118484846132b0565b613a1d84848484613d69565b613a5c576040517f08c379a0000000000000000000000000000000000000000000000000000000008152600401613a5390614fa6565b60405180910390fd5b50505050565b606060405180602001604052806000815250905090565b6060613a84826130ad565b613ac3576040517f08c379a0000000000000000000000000000000000000000000000000000000008152600401613aba906152c6565b60405180910390fd5b6000613acd613a62565b90506000815111613aed5760405180602001604052806000815250613b18565b80613af784613f00565b604051602001613b08929190614e63565b6040516020818303038152906040525b915050919050565b613b2a83836140ad565b613b376000848484613d69565b613b76576040517f08c379a0000000000000000000000000000000000000000000000000000000008152600401613b6d90614fa6565b60405180910390fd5b505050565b505050565b505050565b60008083118290613bcc576040517f08c379a0000000000000000000000000000000000000000000000000000000008152600401613bc39190614f84565b60405180910390fd5b5060008385613bdb919061561f565b9050809150509392505050565b6000838311158290613c30576040517f08c379a0000000000000000000000000000000000000000000000000000000008152600401613c279190614f84565b60405180910390fd5b5060008385613c3f91906156aa565b9050809150509392505050565b6000613c5782611a6b565b9050613c6581600084613b7b565b613c70600083613119565b6001600360008373ffffffffffffffffffffffffffffffffffffffff1673ffffffffffffffffffffffffffffffffffffffff1681526020019081526020016000206000828254613cc091906156aa565b925050819055506002600083815260200190815260200160002060006101000a81549073ffffffffffffffffffffffffffffffffffffffff021916905581600073ffffffffffffffffffffffffffffffffffffffff168273ffffffffffffffffffffffffffffffffffffffff167fddf252ad1be2c89b69c2b068fc378daa952ba7f163c4a11628f55a4df523b3ef60405160405180910390a4613d6581600084613b80565b5050565b6000613d8a8473ffffffffffffffffffffffffffffffffffffffff16614287565b15613ef3578373ffffffffffffffffffffffffffffffffffffffff1663150b7a02613db3613013565b8786866040518563ffffffff1660e01b8152600401613dd59493929190614f02565b602060405180830381600087803b158015613def57600080fd5b505af1925050508015613e2057506040513d601f19601f82011682018060405250810190613e1d919061475b565b60015b613ea3573d8060008114613e50576040519150601f19603f3d011682016040523d82523d6000602084013e613e55565b606091505b50600081511415613e9b576040517f08c379a0000000000000000000000000000000000000000000000000000000008152600401613e9290614fa6565b60405180910390fd5b805181602001fd5b63150b7a0260e01b7bffffffffffffffffffffffffffffffffffffffffffffffffffffffff1916817bffffffffffffffffffffffffffffffffffffffffffffffffffffffff191614915050613ef8565b600190505b949350505050565b60606000821415613f48576040518060400160405280600181526020017f300000000000000000000000000000000000000000000000000000000000000081525090506140a8565b600082905060005b60008214613f7a578080613f639061581b565b915050600a82613f73919061561f565b9150613f50565b60008167ffffffffffffffff811115613fbc577f4e487b7100000000000000000000000000000000000000000000000000000000600052604160045260246000fd5b6040519080825280601f01601f191660200182016040528015613fee5781602001600182028036833780820191505090505b5090505b600085146140a15760018261400791906156aa565b9150600a856140169190615864565b603061402291906155c9565b60f81b81838151811061405e577f4e487b7100000000000000000000000000000000000000000000000000000000600052603260045260246000fd5b60200101907effffffffffffffffffffffffffffffffffffffffffffffffffffffffffffff1916908160001a905350600a8561409a919061561f565b9450613ff2565b8093505050505b919050565b600073ffffffffffffffffffffffffffffffffffffffff168273ffffffffffffffffffffffffffffffffffffffff16141561411d576040517f08c379a000000000000000000000000000000000000000000000000000000000815260040161411490615226565b60405180910390fd5b614126816130ad565b15614166576040517f08c379a000000000000000000000000000000000000000000000000000000000815260040161415d90615066565b60405180910390fd5b61417260008383613b7b565b6001600360008473ffffffffffffffffffffffffffffffffffffffff1673ffffffffffffffffffffffffffffffffffffffff16815260200190815260200160002060008282546141c291906155c9565b92505081905550816002600083815260200190815260200160002060006101000a81548173ffffffffffffffffffffffffffffffffffffffff021916908373ffffffffffffffffffffffffffffffffffffffff160217905550808273ffffffffffffffffffffffffffffffffffffffff16600073ffffffffffffffffffffffffffffffffffffffff167fddf252ad1be2c89b69c2b068fc378daa952ba7f163c4a11628f55a4df523b3ef60405160405180910390a461428360008383613b80565b5050565b6000808273ffffffffffffffffffffffffffffffffffffffff163b119050919050565b50805460008255600302906000526020600020908101906142cb9190614394565b50565b8280546142da906157b8565b90600052602060002090601f0160209004810192826142fc5760008555614343565b82601f1061431557805160ff1916838001178555614343565b82800160010185558215614343579182015b82811115614342578251825591602001919060010190614327565b5b50905061435091906143e2565b5090565b508054614360906157b8565b6000825580601f106143725750614391565b601f01602090049060005260206000209081019061439091906143e2565b5b50565b5b808211156143de576000808201600090556001820160006101000a81549073ffffffffffffffffffffffffffffffffffffffff0219169055600282016000905550600301614395565b5090565b5b808211156143fb5760008160009055506001016143e3565b5090565b600061441261440d84615524565b6154ff565b90508281526020810184848401111561442a57600080fd5b614435848285615776565b509392505050565b600061445061444b84615555565b6154ff565b90508281526020810184848401111561446857600080fd5b614473848285615776565b509392505050565b60008135905061448a8161615a565b92915050565b60008135905061449f81616171565b92915050565b6000815190506144b481616171565b92915050565b6000813590506144c981616188565b92915050565b6000815190506144de81616188565b92915050565b600082601f8301126144f557600080fd5b81356145058482602086016143ff565b91505092915050565b600082601f83011261451f57600080fd5b813561452f84826020860161443d565b91505092915050565b6000813590506145478161619f565b92915050565b60008151905061455c8161619f565b92915050565b60006020828403121561457457600080fd5b60006145828482850161447b565b91505092915050565b6000806040838503121561459e57600080fd5b60006145ac8582860161447b565b92505060206145bd8582860161447b565b9150509250929050565b6000806000606084860312156145dc57600080fd5b60006145ea8682870161447b565b93505060206145fb8682870161447b565b925050604061460c86828701614538565b9150509250925092565b6000806000806080858703121561462c57600080fd5b600061463a8782880161447b565b945050602061464b8782880161447b565b935050604061465c87828801614538565b925050606085013567ffffffffffffffff81111561467957600080fd5b614685878288016144e4565b91505092959194509250565b600080604083850312156146a457600080fd5b60006146b28582860161447b565b92505060206146c385828601614490565b9150509250929050565b600080604083850312156146e057600080fd5b60006146ee8582860161447b565b92505060206146ff85828601614538565b9150509250929050565b60006020828403121561471b57600080fd5b6000614729848285016144a5565b91505092915050565b60006020828403121561474457600080fd5b6000614752848285016144ba565b91505092915050565b60006020828403121561476d57600080fd5b600061477b848285016144cf565b91505092915050565b6000806040838503121561479757600080fd5b600083013567ffffffffffffffff8111156147b157600080fd5b6147bd8582860161450e565b92505060206147ce85828601614538565b9150509250929050565b6000602082840312156147ea57600080fd5b60006147f884828501614538565b91505092915050565b60006020828403121561481357600080fd5b60006148218482850161454d565b91505092915050565b6000806040838503121561483d57600080fd5b600061484b85828601614538565b925050602061485c8582860161447b565b9150509250929050565b6000806040838503121561487957600080fd5b600061488785828601614538565b925050602061489885828601614490565b9150509250929050565b600080604083850312156148b557600080fd5b60006148c385828601614538565b92505060206148d485828601614538565b9150509250929050565b6148e7816156de565b82525050565b6148f6816156f0565b82525050565b600061490782615586565b614911818561559c565b9350614921818560208601615785565b61492a81615951565b840191505092915050565b61493e81615752565b82525050565b600061494f82615591565b61495981856155ad565b9350614969818560208601615785565b61497281615951565b840191505092915050565b600061498882615591565b61499281856155be565b93506149a2818560208601615785565b80840191505092915050565b60006149bb6032836155ad565b91506149c682615962565b604082019050919050565b60006149de601f836155ad565b91506149e9826159b1565b602082019050919050565b6000614a016018836155ad565b9150614a0c826159da565b602082019050919050565b6000614a246026836155ad565b9150614a2f82615a03565b604082019050919050565b6000614a476010836155ad565b9150614a5282615a52565b602082019050919050565b6000614a6a6025836155ad565b9150614a7582615a7b565b604082019050919050565b6000614a8d601c836155ad565b9150614a9882615aca565b602082019050919050565b6000614ab06013836155ad565b9150614abb82615af3565b602082019050919050565b6000614ad3601b836155ad565b9150614ade82615b1c565b602082019050919050565b6000614af66021836155ad565b9150614b0182615b45565b604082019050919050565b6000614b196024836155ad565b9150614b2482615b94565b604082019050919050565b6000614b3c6019836155ad565b9150614b4782615be3565b602082019050919050565b6000614b5f602c836155ad565b9150614b6a82615c0c565b604082019050919050565b6000614b82601b836155ad565b9150614b8d82615c5b565b602082019050919050565b6000614ba56038836155ad565b9150614bb082615c84565b604082019050919050565b6000614bc8602a836155ad565b9150614bd382615cd3565b604082019050919050565b6000614beb6029836155ad565b9150614bf682615d22565b604082019050919050565b6000614c0e602e836155ad565b9150614c1982615d71565b604082019050919050565b6000614c316018836155ad565b9150614c3c82615dc0565b602082019050919050565b6000614c546013836155ad565b9150614c5f82615de9565b602082019050919050565b6000614c776020836155ad565b9150614c8282615e12565b602082019050919050565b6000614c9a6031836155ad565b9150614ca582615e3b565b604082019050919050565b6000614cbd6021836155ad565b9150614cc882615e8a565b604082019050919050565b6000614ce0602c836155ad565b9150614ceb82615ed9565b604082019050919050565b6000614d036020836155ad565b9150614d0e82615f28565b602082019050919050565b6000614d26602f836155ad565b9150614d3182615f51565b604082019050919050565b6000614d496021836155ad565b9150614d5482615fa0565b604082019050919050565b6000614d6c6031836155ad565b9150614d7782615fef565b604082019050919050565b6000614d8f6014836155ad565b9150614d9a8261603e565b602082019050919050565b6000614db26019836155ad565b9150614dbd82616067565b602082019050919050565b6000614dd56017836155ad565b9150614de082616090565b602082019050919050565b6000614df86024836155ad565b9150614e03826160b9565b604082019050919050565b6000614e1b6013836155ad565b9150614e2682616108565b602082019050919050565b6000614e3e601a836155ad565b9150614e4982616131565b602082019050919050565b614e5d81615748565b82525050565b6000614e6f828561497d565b9150614e7b828461497d565b91508190509392505050565b6000602082019050614e9c60008301846148de565b92915050565b6000604082019050614eb760008301856148de565b614ec460208301846148de565b9392505050565b6000606082019050614ee060008301866148de565b614eed60208301856148de565b614efa6040830184614e54565b949350505050565b6000608082019050614f1760008301876148de565b614f2460208301866148de565b614f316040830185614e54565b8181036060830152614f4381846148fc565b905095945050505050565b6000602082019050614f6360008301846148ed565b92915050565b6000602082019050614f7e6000830184614935565b92915050565b60006020820190508181036000830152614f9e8184614944565b905092915050565b60006020820190508181036000830152614fbf816149ae565b9050919050565b60006020820190508181036000830152614fdf816149d1565b9050919050565b60006020820190508181036000830152614fff816149f4565b9050919050565b6000602082019050818103600083015261501f81614a17565b9050919050565b6000602082019050818103600083015261503f81614a3a565b9050919050565b6000602082019050818103600083015261505f81614a5d565b9050919050565b6000602082019050818103600083015261507f81614a80565b9050919050565b6000602082019050818103600083015261509f81614aa3565b9050919050565b600060208201905081810360008301526150bf81614ac6565b9050919050565b600060208201905081810360008301526150df81614ae9565b9050919050565b600060208201905081810360008301526150ff81614b0c565b9050919050565b6000602082019050818103600083015261511f81614b2f565b9050919050565b6000602082019050818103600083015261513f81614b52565b9050919050565b6000602082019050818103600083015261515f81614b75565b9050919050565b6000602082019050818103600083015261517f81614b98565b9050919050565b6000602082019050818103600083015261519f81614bbb565b9050919050565b600060208201905081810360008301526151bf81614bde565b9050919050565b600060208201905081810360008301526151df81614c01565b9050919050565b600060208201905081810360008301526151ff81614c24565b9050919050565b6000602082019050818103600083015261521f81614c47565b9050919050565b6000602082019050818103600083015261523f81614c6a565b9050919050565b6000602082019050818103600083015261525f81614c8d565b9050919050565b6000602082019050818103600083015261527f81614cb0565b9050919050565b6000602082019050818103600083015261529f81614cd3565b9050919050565b600060208201905081810360008301526152bf81614cf6565b9050919050565b600060208201905081810360008301526152df81614d19565b9050919050565b600060208201905081810360008301526152ff81614d3c565b9050919050565b6000602082019050818103600083015261531f81614d5f565b9050919050565b6000602082019050818103600083015261533f81614d82565b9050919050565b6000602082019050818103600083015261535f81614da5565b9050919050565b6000602082019050818103600083015261537f81614dc8565b9050919050565b6000602082019050818103600083015261539f81614deb565b9050919050565b600060208201905081810360008301526153bf81614e0e565b9050919050565b600060208201905081810360008301526153df81614e31565b9050919050565b60006020820190506153fb6000830184614e54565b92915050565b60006060820190506154166000830186614e54565b61542360208301856148de565b6154306040830184614e54565b949350505050565b600060408201905061544d6000830185614e54565b61545a60208301846148ed565b9392505050565b60006040820190506154766000830185614e54565b6154836020830184614e54565b9392505050565b600060608201905061549f6000830186614e54565b6154ac6020830185614e54565b81810360408301526154be8184614944565b9050949350505050565b60006060820190506154dd6000830186614e54565b6154ea6020830185614e54565b6154f76040830184614e54565b949350505050565b600061550961551a565b905061551582826157ea565b919050565b6000604051905090565b600067ffffffffffffffff82111561553f5761553e615922565b5b61554882615951565b9050602081019050919050565b600067ffffffffffffffff8211156155705761556f615922565b5b61557982615951565b9050602081019050919050565b600081519050919050565b600081519050919050565b600082825260208201905092915050565b600082825260208201905092915050565b600081905092915050565b60006155d482615748565b91506155df83615748565b9250827fffffffffffffffffffffffffffffffffffffffffffffffffffffffffffffffff0382111561561457615613615895565b5b828201905092915050565b600061562a82615748565b915061563583615748565b925082615645576156446158c4565b5b828204905092915050565b600061565b82615748565b915061566683615748565b9250817fffffffffffffffffffffffffffffffffffffffffffffffffffffffffffffffff048311821515161561569f5761569e615895565b5b828202905092915050565b60006156b582615748565b91506156c083615748565b9250828210156156d3576156d2615895565b5b828203905092915050565b60006156e982615728565b9050919050565b60008115159050919050565b60007fffffffff0000000000000000000000000000000000000000000000000000000082169050919050565b600073ffffffffffffffffffffffffffffffffffffffff82169050919050565b6000819050919050565b600061575d82615764565b9050919050565b600061576f82615728565b9050919050565b82818337600083830152505050565b60005b838110156157a3578082015181840152602081019050615788565b838111156157b2576000848401525b50505050565b600060028204905060018216806157d057607f821691505b602082108114156157e4576157e36158f3565b5b50919050565b6157f382615951565b810181811067ffffffffffffffff8211171561581257615811615922565b5b80604052505050565b600061582682615748565b91507fffffffffffffffffffffffffffffffffffffffffffffffffffffffffffffffff82141561585957615858615895565b5b600182019050919050565b600061586f82615748565b915061587a83615748565b92508261588a576158896158c4565b5b828206905092915050565b7f4e487b7100000000000000000000000000000000000000000000000000000000600052601160045260246000fd5b7f4e487b7100000000000000000000000000000000000000000000000000000000600052601260045260246000fd5b7f4e487b7100000000000000000000000000000000000000000000000000000000600052602260045260246000fd5b7f4e487b7100000000000000000000000000000000000000000000000000000000600052604160045260246000fd5b6000601f19601f8301169050919050565b7f4552433732313a207472616e7366657220746f206e6f6e20455243373231526560008201527f63656976657220696d706c656d656e7465720000000000000000000000000000602082015250565b7f43616e206e6f742063616e63656c20626964207768617420796f75206f776e00600082015250565b7f43616e206e6f7420627579207768617420796f75206f776e0000000000000000600082015250565b7f4f776e61626c653a206e6577206f776e657220697320746865207a65726f206160008201527f6464726573730000000000000000000000000000000000000000000000000000602082015250565b7f596f75206e657665722062696464656400000000000000000000000000000000600082015250565b7f4552433732313a207472616e736665722066726f6d20696e636f72726563742060008201527f6f776e6572000000000000000000000000000000000000000000000000000000602082015250565b7f4552433732313a20746f6b656e20616c7265616479206d696e74656400000000600082015250565b7f43616e206e6f74207365766572616c2062696400000000000000000000000000600082015250565b7f536166654d6174683a206164646974696f6e206f766572666c6f770000000000600082015250565b7f4572726f722c2074686520616d6f756e74206973206c6f776572207468616e2060008201527f3000000000000000000000000000000000000000000000000000000000000000602082015250565b7f4552433732313a207472616e7366657220746f20746865207a65726f2061646460008201527f7265737300000000000000000000000000000000000000000000000000000000602082015250565b7f4552433732313a20617070726f766520746f2063616c6c657200000000000000600082015250565b7f4552433732313a206f70657261746f7220717565727920666f72206e6f6e657860008201527f697374656e7420746f6b656e0000000000000000000000000000000000000000602082015250565b7f4572726f722c207468652062616c616e6365206973206c6f7765720000000000600082015250565b7f4552433732313a20617070726f76652063616c6c6572206973206e6f74206f7760008201527f6e6572206e6f7220617070726f76656420666f7220616c6c0000000000000000602082015250565b7f4552433732313a2062616c616e636520717565727920666f7220746865207a6560008201527f726f206164647265737300000000000000000000000000000000000000000000602082015250565b7f4552433732313a206f776e657220717565727920666f72206e6f6e657869737460008201527f656e7420746f6b656e0000000000000000000000000000000000000000000000602082015250565b7f45524337323155524953746f726167653a2055524920736574206f66206e6f6e60008201527f6578697374656e7420746f6b656e000000000000000000000000000000000000602082015250565b7f43616e206e6f7420626964207768617420796f75206f776e0000000000000000600082015250565b7f4f6e6c79204f776e65722043616e204275726e00000000000000000000000000600082015250565b7f4552433732313a206d696e7420746f20746865207a65726f2061646472657373600082015250565b7f45524337323155524953746f726167653a2055524920717565727920666f722060008201527f6e6f6e6578697374656e7420746f6b656e000000000000000000000000000000602082015250565b7f536166654d6174683a206d756c7469706c69636174696f6e206f766572666c6f60008201527f7700000000000000000000000000000000000000000000000000000000000000602082015250565b7f4552433732313a20617070726f76656420717565727920666f72206e6f6e657860008201527f697374656e7420746f6b656e0000000000000000000000000000000000000000602082015250565b7f4f776e61626c653a2063616c6c6572206973206e6f7420746865206f776e6572600082015250565b7f4552433732314d657461646174613a2055524920717565727920666f72206e6f60008201527f6e6578697374656e7420746f6b656e0000000000000000000000000000000000602082015250565b7f4552433732313a20617070726f76616c20746f2063757272656e74206f776e6560008201527f7200000000000000000000000000000000000000000000000000000000000000602082015250565b7f4552433732313a207472616e736665722063616c6c6572206973206e6f74206f60008201527f776e6572206e6f7220617070726f766564000000000000000000000000000000602082015250565b7f4572726f722c2077726f6e6720746f6b656e4964000000000000000000000000600082015250565b7f4974656d206e6f74206c69737465642063757272656e746c7900000000000000600082015250565b7f43616e2073656c6c20746f206f6e6c7920626964646572000000000000000000600082015250565b7f4572726f722c2074686520616c6c6f77616e636520616d6f756e74206973206c60008201527f6f77657200000000000000000000000000000000000000000000000000000000602082015250565b7f4f6e6c79206f776e65722063616e2073656c6c00000000000000000000000000600082015250565b7f4572726f722c2074686520616d6f756e74206973206c6f776572000000000000600082015250565b616163816156de565b811461616e57600080fd5b50565b61617a816156f0565b811461618557600080fd5b50565b616191816156fc565b811461619c57600080fd5b50565b6161a881615748565b81146161b357600080fd5b5056fea264697066735822122012bfdb3efd1425e41d0e4297b7c1c43c245fcfdc9284246fd76e46fad5dcb45364736f6c63430008010033",
  "immutableReferences": {},
  "source": "// SPDX-License-Identifier: MIT\npragma solidity >=0.4.22 <0.9.0;\n\nimport \"openzeppelin-solidity/contracts/token/ERC721/extensions/ERC721URIStorage.sol\";\nimport \"openzeppelin-solidity/contracts/access/Ownable.sol\";\nimport \"openzeppelin-solidity/contracts/token/ERC20/IERC20.sol\";\n\nlibrary SafeMath {\n    /**\n     * @dev Returns the addition of two unsigned integers, reverting on\n     * overflow.\n     *\n     * Counterpart to Solidity's `+` operator.\n     *\n     * Requirements:\n     *\n     * - Addition cannot overflow.\n     */\n    function add(uint256 a, uint256 b) internal pure returns (uint256) {\n        uint256 c = a + b;\n        require(c >= a, \"SafeMath: addition overflow\");\n\n        return c;\n    }\n\n    /**\n     * @dev Returns the subtraction of two unsigned integers, reverting on\n     * overflow (when the result is negative).\n     *\n     * Counterpart to Solidity's `-` operator.\n     *\n     * Requirements:\n     *\n     * - Subtraction cannot overflow.\n     */\n    function sub(uint256 a, uint256 b) internal pure returns (uint256) {\n        return sub(a, b, \"SafeMath: subtraction overflow\");\n    }\n\n    /**\n     * @dev Returns the subtraction of two unsigned integers, reverting with custom message on\n     * overflow (when the result is negative).\n     *\n     * Counterpart to Solidity's `-` operator.\n     *\n     * Requirements:\n     *\n     * - Subtraction cannot overflow.\n     */\n    function sub(uint256 a, uint256 b, string memory errorMessage) internal pure returns (uint256) {\n        require(b <= a, errorMessage);\n        uint256 c = a - b;\n\n        return c;\n    }\n\n    /**\n     * @dev Returns the multiplication of two unsigned integers, reverting on\n     * overflow.\n     *\n     * Counterpart to Solidity's `*` operator.\n     *\n     * Requirements:\n     *\n     * - Multiplication cannot overflow.\n     */\n    function mul(uint256 a, uint256 b) internal pure returns (uint256) {\n        // Gas optimization: this is cheaper than requiring 'a' not being zero, but the\n        // benefit is lost if 'b' is also tested.\n        // See: https://github.com/OpenZeppelin/openzeppelin-contracts/pull/522\n        if (a == 0) {\n            return 0;\n        }\n\n        uint256 c = a * b;\n        require(c / a == b, \"SafeMath: multiplication overflow\");\n\n        return c;\n    }\n\n    /**\n     * @dev Returns the integer division of two unsigned integers. Reverts on\n     * division by zero. The result is rounded towards zero.\n     *\n     * Counterpart to Solidity's `/` operator. Note: this function uses a\n     * `revert` opcode (which leaves remaining gas untouched) while Solidity\n     * uses an invalid opcode to revert (consuming all remaining gas).\n     *\n     * Requirements:\n     *\n     * - The divisor cannot be zero.\n     */\n    function div(uint256 a, uint256 b) internal pure returns (uint256) {\n        return div(a, b, \"SafeMath: division by zero\");\n    }\n\n    /**\n     * @dev Returns the integer division of two unsigned integers. Reverts with custom message on\n     * division by zero. The result is rounded towards zero.\n     *\n     * Counterpart to Solidity's `/` operator. Note: this function uses a\n     * `revert` opcode (which leaves remaining gas untouched) while Solidity\n     * uses an invalid opcode to revert (consuming all remaining gas).\n     *\n     * Requirements:\n     *\n     * - The divisor cannot be zero.\n     */\n    function div(uint256 a, uint256 b, string memory errorMessage) internal pure returns (uint256) {\n        require(b > 0, errorMessage);\n        uint256 c = a / b;\n        // assert(a == b * c + a % b); // There is no case in which this doesn't hold\n\n        return c;\n    }\n\n    /**\n     * @dev Returns the remainder of dividing two unsigned integers. (unsigned integer modulo),\n     * Reverts when dividing by zero.\n     *\n     * Counterpart to Solidity's `%` operator. This function uses a `revert`\n     * opcode (which leaves remaining gas untouched) while Solidity uses an\n     * invalid opcode to revert (consuming all remaining gas).\n     *\n     * Requirements:\n     *\n     * - The divisor cannot be zero.\n     */\n    function mod(uint256 a, uint256 b) internal pure returns (uint256) {\n        return mod(a, b, \"SafeMath: modulo by zero\");\n    }\n\n    /**\n     * @dev Returns the remainder of dividing two unsigned integers. (unsigned integer modulo),\n     * Reverts with custom message when dividing by zero.\n     *\n     * Counterpart to Solidity's `%` operator. This function uses a `revert`\n     * opcode (which leaves remaining gas untouched) while Solidity uses an\n     * invalid opcode to revert (consuming all remaining gas).\n     *\n     * Requirements:\n     *\n     * - The divisor cannot be zero.\n     */\n    function mod(uint256 a, uint256 b, string memory errorMessage) internal pure returns (uint256) {\n        require(b != 0, errorMessage);\n        return a % b;\n    }\n}\n\ncontract ArtDecoNFT is ERC721URIStorage, Ownable {\n    using SafeMath for uint256;\n    using Address for address;\n\n    address public feeAddress;\n    uint256 public feePercent = 3;\n\n    mapping(uint256 => uint256) public price;\n    mapping(uint256 => bool) public listedMap;\n\n    uint256 private mintIndex = 0;\n\n    IERC20 public paymentToken;\n\n    struct BidEntity{\n        uint256 tokenId;\n        address buyer;\n        uint256 price;\n    }\n\n    mapping (uint256=>BidEntity[]) public bidArrayOfToken;\n    mapping (uint256=>mapping(address=>bool)) public bidStatusOfToken;\n\n    event Purchase(address indexed previousOwner, address indexed newOwner, uint256 price, uint256 nftID, string uri);\n    event Minted(address indexed minter, uint256 price, uint256 nftID, string uri);\n    event PriceUpdate(address indexed owner, uint256 oldPrice, uint256 newPrice, uint256 nftID);\n    event NftListStatus(address indexed owner, uint256 nftID, bool isListed);\n    event Burned(uint256 nftID);\n    event BidCreate(address indexed buyer, uint nftID, uint price);\n    event BidCancel(address indexed buyer, uint nftID);\n    event Sell(address indexed previousOwner, address indexed newOwner, uint256 price, uint256 nftID, string uri);\n\n    modifier _validateBuy(uint256 _id) {\n        require(_exists(_id), \"Error, wrong tokenId\");\n        require(listedMap[_id], \"Item not listed currently\");\n        require(msg.value >= price[_id], \"Error, the amount is lower\");\n        require(_msgSender() != ownerOf(_id), \"Can not buy what you own\");\n        _;\n    }\n\n    modifier _validateBid(uint256 _id, uint256 _price) {\n        require(_exists(_id), \"Error, wrong tokenId\");\n        require(listedMap[_id], \"Item not listed currently\");\n        require(_price > 0, \"Error, the amount is lower than 0\");\n        require(_msgSender() != ownerOf(_id), \"Can not bid what you own\");\n        require(bidStatusOfToken[_id][_msgSender()] == false, \"Can not several bid\");\n        _;\n    }\n\n    modifier _validateCancelBid(uint256 _id) {\n        require(_exists(_id), \"Error, wrong tokenId\");\n        require(listedMap[_id], \"Item not listed currently\");\n        require(_msgSender() != ownerOf(_id), \"Can not cancel bid what you own\");\n        require(bidStatusOfToken[_id][_msgSender()] == true, \"You never bidded\");\n        _;\n    }\n\n    modifier _validateSell(uint256 _id, address _buyer) {\n        require(_exists(_id), \"Error, wrong tokenId\");\n        require(listedMap[_id], \"Item not listed currently\");\n        require(_msgSender() == ownerOf(_id), \"Only owner can sell\");\n        require(bidStatusOfToken[_id][_buyer] == true, \"Can sell to only bidder\");\n\n        uint256 _bidPrice = getPriceOfBid(_id, _buyer);\n        require(_bidPrice <= paymentToken.allowance(_buyer, address(this)), \"Error, the allowance amount is lower\");\n        require(_bidPrice <= paymentToken.balanceOf(_buyer), \"Error, the balance is lower\");\n        _;\n    }\n\n    modifier _validateOwnerOfToken(uint256 _id) {\n        require(_exists(_id), \"Error, wrong tokenId\");\n        require(_msgSender() == ownerOf(_id), \"Only Owner Can Burn\");\n        _;\n    }\n\n    constructor(address _paymentToken) ERC721(\"ArtDeco NFTs\", \"ARTD\") {\n        feeAddress = _msgSender();\n        paymentToken = IERC20(_paymentToken);\n    }\n\n    function setFee(address _feeAddress, uint256 _feePercent) external onlyOwner {\n        feeAddress = _feeAddress;\n        feePercent = _feePercent;\n    }\n\n    function mint(string memory _tokenURI, uint256 _price) external returns (uint256) {\n        mintIndex = mintIndex.add(1);\n        uint256 _tokenId = mintIndex;\n        price[_tokenId] = _price;\n        listedMap[_tokenId] = true;\n\n        _safeMint(_msgSender(), _tokenId);\n        _setTokenURI(_tokenId, _tokenURI);\n\n        emit Minted(_msgSender(), _price, _tokenId, _tokenURI);\n\n        return _tokenId;\n    }\n\n    function burn(uint256 _id) external _validateOwnerOfToken(_id) {\n        _burn(_id);\n        delete price[_id];\n        delete listedMap[_id];\n\n        // Remove all Bid List\n        for(uint256 i = 0; i < bidArrayOfToken[_id].length; i++)\n        {\n            bidStatusOfToken[_id][bidArrayOfToken[_id][i].buyer] = false;\n        }\n        delete bidArrayOfToken[_id];\n        \n        emit Burned(_id);\n    }\n\n    function buy(uint256 _id) external payable _validateBuy(_id) {\n        address _previousOwner = ownerOf(_id);\n        address _newOwner = _msgSender();\n\n        address payable _buyer = payable(_newOwner);\n        address payable _owner = payable(_previousOwner);\n\n        _transfer(_owner, _buyer, _id);\n\n        uint256 _commissionValue = price[_id].div(10**2).mul(feePercent);\n        uint256 _sellerValue = price[_id].sub(_commissionValue);\n\n        _owner.transfer(_sellerValue);\n        payable(feeAddress).transfer(_commissionValue);\n\n        // If buyer sent more than price, we send them back their rest of funds\n        if (msg.value > price[_id]) {\n            _buyer.transfer(msg.value.sub(price[_id]));\n        }\n\n        listedMap[_id] = false;\n\n        // Remove all Bid List\n        for(uint256 i = 0; i < bidArrayOfToken[_id].length; i++)\n        {\n            bidStatusOfToken[_id][bidArrayOfToken[_id][i].buyer] = false;\n        }\n        delete bidArrayOfToken[_id];\n\n        emit Purchase(_previousOwner, _newOwner, price[_id], _id, tokenURI(_id));\n    }\n\n    function bid(uint256 _id, uint256 _price) external _validateBid(_id, _price){\n        BidEntity memory newBidEntity = BidEntity(_id, _msgSender(), _price);\n        bidArrayOfToken[_id].push(newBidEntity);\n        bidStatusOfToken[_id][_msgSender()] = true;\n\n        emit BidCreate(_msgSender(), _id, _price);\n    }\n\n    function cancelBid(uint256 _id) external _validateCancelBid(_id){\n        for(uint256 i = 0; i < bidArrayOfToken[_id].length; i++)\n        {\n            if (bidArrayOfToken[_id][i].buyer == _msgSender())\n            {\n                bidArrayOfToken[_id][i] = bidArrayOfToken[_id][bidArrayOfToken[_id].length - 1];\n                bidArrayOfToken[_id].pop();\n                break;\n            }\n        }\n        bidStatusOfToken[_id][_msgSender()] = false;\n\n        emit BidCancel(_msgSender(), _id);\n    }\n\n    function sell(uint256 _id, address _buyer) external _validateSell(_id, _buyer){\n        address _owner = ownerOf(_id);\n\n        _transfer(_owner, _buyer, _id);\n\n        uint256 _price = getPriceOfBid(_id, _buyer);\n        uint256 _commissionValue = _price.div(10**2).mul(feePercent);\n        uint256 _sellerValue = _price.sub(_commissionValue);\n\n        paymentToken.transferFrom(_buyer, feeAddress, _commissionValue);\n        paymentToken.transferFrom(_buyer, _owner, _sellerValue);\n\n        listedMap[_id] = false;\n\n        // Remove all Bid List\n        for(uint256 i = 0; i < bidArrayOfToken[_id].length; i++)\n        {\n            bidStatusOfToken[_id][bidArrayOfToken[_id][i].buyer] = false;\n        }\n        delete bidArrayOfToken[_id];\n\n        emit Sell(_owner, _buyer, _price, _id, tokenURI(_id));\n    }\n\n    function updatePrice(uint256 _tokenId, uint256 _price) external _validateOwnerOfToken(_tokenId){\n        uint256 oldPrice = price[_tokenId];\n        price[_tokenId] = _price;\n\n        emit PriceUpdate(_msgSender(), oldPrice, _price, _tokenId);\n    }\n\n    function updateListingStatus(uint256 _tokenId, bool shouldBeListed) external _validateOwnerOfToken(_tokenId){\n        listedMap[_tokenId] = shouldBeListed;\n\n        emit NftListStatus(_msgSender(), _tokenId, shouldBeListed);\n    }\n\n    function getPriceOfBid(uint256 _id, address _buyer) internal view returns(uint256){\n        for(uint256 i = 0; i < bidArrayOfToken[_id].length; i++)\n        {\n            if (bidArrayOfToken[_id][i].buyer == _buyer)\n            {\n                return bidArrayOfToken[_id][i].price;\n            }\n        }\n        return 0;\n    }\n}\n",
  "sourcePath": "/Users/cypher01/go/src/github.com/hanselke/ArtDeco-NFT/contracts/ArtDecoNFT.sol",
  "compiler": {
    "name": "solc",
    "version": "0.8.1+commit.df193b15.Emscripten.clang"
  },
  "schemaVersion": "3.4.1",
  "updatedAt": "2022-04-21T04:46:58.880Z",
  "devdoc": {
    "kind": "dev",
    "methods": {
      "approve(address,uint256)": {
        "details": "See {IERC721-approve}."
      },
      "balanceOf(address)": {
        "details": "See {IERC721-balanceOf}."
      },
      "getApproved(uint256)": {
        "details": "See {IERC721-getApproved}."
      },
      "isApprovedForAll(address,address)": {
        "details": "See {IERC721-isApprovedForAll}."
      },
      "name()": {
        "details": "See {IERC721Metadata-name}."
      },
      "owner()": {
        "details": "Returns the address of the current owner."
      },
      "ownerOf(uint256)": {
        "details": "See {IERC721-ownerOf}."
      },
      "renounceOwnership()": {
        "details": "Leaves the contract without owner. It will not be possible to call `onlyOwner` functions anymore. Can only be called by the current owner. NOTE: Renouncing ownership will leave the contract without an owner, thereby removing any functionality that is only available to the owner."
      },
      "safeTransferFrom(address,address,uint256)": {
        "details": "See {IERC721-safeTransferFrom}."
      },
      "safeTransferFrom(address,address,uint256,bytes)": {
        "details": "See {IERC721-safeTransferFrom}."
      },
      "setApprovalForAll(address,bool)": {
        "details": "See {IERC721-setApprovalForAll}."
      },
      "supportsInterface(bytes4)": {
        "details": "See {IERC165-supportsInterface}."
      },
      "symbol()": {
        "details": "See {IERC721Metadata-symbol}."
      },
      "tokenURI(uint256)": {
        "details": "See {IERC721Metadata-tokenURI}."
      },
      "transferFrom(address,address,uint256)": {
        "details": "See {IERC721-transferFrom}."
      },
      "transferOwnership(address)": {
        "details": "Transfers ownership of the contract to a new account (`newOwner`). Can only be called by the current owner."
      }
    },
    "version": 1
  },
  "userdoc": {
    "kind": "user",
    "methods": {},
    "version": 1
  }
}